:020000041000EA
:1000000000B5324B212058609868022188439860DF
:10001000D860186158612E4B002199600221596106
:100020000121F02299502B49196001219960352056
:1000300000F044F80222904214D00621196600F024
:1000400034F8196E01211966002018661A6600F04E
:100050002CF8196E196E196E052000F02FF8012189
:100060000842F9D1002199601B49196000215960AB
:100070001A491B48016001219960EB211966A021F2
:10008000196600F012F800219960164914480160C1
:100090000121996001BC002800D000471248134993
:1000A000086003C880F30888084703B5996A0420EC
:1000B0000142FBD001200142F8D103BD02B5186610
:1000C0001866FFF7F2FF186E186E02BD00000240BE
:1000D000000000180000070000035F00212200005C
:1000E000F4000018222000A00001001008ED00E03C
:1000F00000000000000000000000000074B24E7A12
:1001000000200420F7010010C3010010C5010010F9
:10011000C1010010C1010010C1010010C101001097
:10012000C1010010C1010010C1010010C701001081
:10013000C1010010C1010010C9010010CB01001065
:10014000CD010010CD010010CD010010CD01001037
:10015000CD010010CD010010CD010010CD01001027
:10016000CD010010CD010010CD010010CD01001017
:10017000CD010010CD010010CD010010CD01001007
:10018000CD010010CD010010CD010010CD010010F7
:10019000CD010010CD010010CD010010CD010010E7
:1001A000CD010010CD010010CD010010CD010010D7
:1001B000CD010010CD010010CD010010CD010010C7
:1001C00000BE00BE00BE00BE00BE00BEEFF3058054
:1001D000103800BEF2EB88715CB700107CB70010DD
:1001E0003802001090A31AE71E481F49086006C88D
:1001F00081F3088810471D480068002801D019487D
:10020000F3E70DA40ECC002902D000F012F8F9E7B4
:100210001749184A002000E001C19142FCD116495B
:100220008847164988471649884700BEFDE701C937
:1002300001C29A42FBD370477CB70010C000002077
:1002400040160020FCCC0010000004200000042018
:10025000FCCC00100010042000100420000000005E
:10026000704700000000000008ED00E0000000D032
:1002700040160020D831022091480010D50200100D
:1002800089480010F8B5C04606480749091A8B107E
:10029000C90FC91810B5491003D0044B002B00D06A
:1002A000984710BD401600204016002000000000B6
:1002B000054B10B5002B03D00449054800E000BFF2
:1002C000FFF7E2FF10BDC04600000000DC2C00205C
:1002D000D8A8001030B583B004F00CFC00F064FE28
:1002E00000F07EFE134800F027FD134800F032FDB9
:1002F000FA20000101F010FE8024104804F04AFCAE
:10030000002501236401220000930D49002301957B
:100310000C4808F0A5F8022322000B490093019530
:1003200000230A4808F09CF808F0BCF9002003B04C
:1003300030BDC046002B0020B42C0020D8A80010EF
:10034000E8A80010B9110010F8A80010C50A0010A4
:10035000F0B5454657464E46DE46E0B58FB018AD7F
:1003600010CD94462F780725267835406A1E954192
:10037000A8466578F608B044002D00D191E04646C5
:10038000002E00D18DE06246013A0C9201225918EC
:10039000DE0091460632A4460A9644460026884668
:1003A000924619002B006246D57809947D1B5D4367
:1003B00043465B1A9B46AD1965435C4605350B9574
:1003C00005944D4644460C9B6D1A5B18039400221D
:1003D00064468C46390004950D960B9D1F006519E7
:1003E000AE5C0792089308250B0032006146A446D4
:1003F00005E0013DEDB252087F18002D37D04C4684
:100400001442F6D0049CE619059C0029F1D0E04680
:100410008B469C4606920378310002959C4217D287
:10042000427891420ED2CA085343C2684D460192A7
:1004300052460A4095402A00019D1B19ED5C2A4353
:10044000019DEA54B94203D0037801319C42E7D3BD
:10045000039B0134029D9C42DDD15946069A013D21
:10046000EDB263465208C4467F18002DC7D10A9DDD
:10047000079AA8466446099D8C461900089B0132DC
:1004800043449542A9D10F006146A446039B0D9EAB
:100490009846634601365B78F2B22C0088449A4253
:1004A00081D30FB0F0BCBB46B246A946A046F0BD12
:1004B000F0B5DE46574645464E46E0B50F009A4633
:1004C0008BB0149B0600C8B242499B46D3B2394058
:1004D00098461B020B4351461500D208D2B21404B1
:1004E00023431B0209061B0A0B4333605B46504340
:1004F00073603061013002F0B3FDF060002867D016
:10050000354B03AC03934346013B2371D323637103
:100510008023DB01E3808D232372337A0130F06086
:100520006D00002B48D11423BD424BDB1221F12278
:1005300063722A4B25276381DA2323735A3BFF3BDF
:10054000E3815933FF332374254B61736382254B59
:100550006274089300232376234B6F449846234B01
:1005600002AD99460CE0013003D14146204804F029
:1005700099FB0134A74217D073689B46F3789A46DB
:10058000002322782B706A70514600932A000233B0
:10059000584609F023F9831CE5D141464846013409
:1005A00004F080FBA742E7D101200BB0F0BCBB46B2
:1005B000B246A946A046F0BD1023BD4205DB12217C
:1005C0002222B5E70221F122B2E702212222AFE77F
:1005D0003061EAE7FF00FFFFAED580A8A1C8FFFFAA
:1005E000DB300000A4A6AF2004AA001034AA00103B
:1005F00014AA0010030010B50021C0681A6902F0A7
:1006000055FD10BDF0B54E4645465746DE46E0B5B1
:1006100083B00C9D81462C78924698460E00002CA3
:1006200016D05F00104B47449B467F002300203BC1
:1006300001355E2B13D85B4631000194009352467E
:1006400043464846FFF784FE2C78BE19002CEDD1B6
:1006500003B0F0BCBB46B246A946A046F0BD2C781C
:10066000BE19002CE2D1F3E730AF0010F0B5CE4652
:100670004746212380B5027887B004AC2380531EFF
:10068000A3702223E3700023237183780600013BCB
:100690006371402A03D1202363703F33A370162770
:1006A000224B6F449846224B03AD994608E0013037
:1006B00003D141461F4804F0F5FA0134A74213D094
:1006C000002322782B706A70F17870682A000093FA
:1006D000023309F083F8831CE9D1414648460134CE
:1006E00004F0E0FAA742EBD140220024F368013B7A
:1006F0001A703369F268F17870680133013A009436
:1007000009F06CF8831C0BD0013004D007B0C0BCDA
:10071000B946B046F0BD0849064804F0C3FAF5E70B
:100720000549034804F0BEFAF0E7C04604AA0010E9
:1007300034AA001014AA001044AA0010F0B5264CE8
:100740000278A544002A45D000260124234D411CEF
:1007500008E02F00DF403C4209D001314B1E1A78DF
:10076000002A0CD013000A3BDBB2162BF1D96B46E2
:1007700001319A554B1E1A780136002AF2D16B4688
:100780009A55002E1DDD6A46541E154A01239446D3
:1007900062460327E15CFFAD525C03353A40012A13
:1007A0000AD0E9545A1C9E420BD013006246E15C09
:1007B000525C3A40012AF4D12031E9545A1C9E423D
:1007C000F3D10023FFA904318B5509F007FE054B37
:1007D0009D44F0BD0026F4E7FCF7FFFF0900400050
:1007E00059B600100408000030B5284D284C83B0DD
:1007F0002900200009F0AEFD00280AD020002900C1
:100800001E3009F0A7FD002811D1C82321495B0043
:1008100002E0C82320495B0001912049204A009151
:1008200080212048490003F0D7FF03B030BD2000ED
:1008300029005A3009F08EFD002818D02000290028
:10084000783009F087FD002815D020002900963067
:1008500009F080FD002812D0200029003C3009F06A
:1008600079FD00280FD1C8230F495B00D4E7C823C6
:100870000E495B00D0E7C8230D495B00CCE7C823D5
:100880000C495B00C8E7C8230B49C5E7D0AA001094
:10089000002B002068AA001054AA0010D8A900104C
:1008A000D8AA0010B42B0020C0AA001080AA001003
:1008B00098AA0010B0AA001060A90010962370B585
:1008C000794CE35C002B1FD02600784D9636300023
:1008D000296809F03FFD002800D0AFE03000A9688A
:1008E00009F038FD002800D0D1E03000296909F076
:1008F00031FD002800D0CCE03000A96909F02AFDC4
:100900000323002800D09AE02378002B24D0684DE0
:100910002000296809F01EFD002800D095E0200085
:10092000A96809F017FD002800D0AAE02000296975
:1009300009F010FD002800D0AFE02000A96909F0FF
:1009400009FD002800D0ACE02000296A09F002FD72
:100950000423002800D079E0A37F002B25D02600B7
:10096000534D1E363000296809F0F4FC002800D0F1
:1009700072E03000A96809F0EDFC002800D082E0A8
:100980003000296909F0E6FC002800D083E030003F
:10099000A96909F0DFFC002800D080E03000296A56
:1009A00009F0D8FC0423002857D15A23E35C002B1C
:1009B0000FD026003F4D5A363000296809F0CAFC96
:1009C000002857D13000A96809F0C4FC0123002891
:1009D00051D17823E35C002B15D02600364D7836B4
:1009E0003000296809F0B6FC002820D13000A96841
:1009F00009F0B0FC002848D13000296909F0AAFCB0
:100A00000223002814D1B423E35C002B0ED02B4D1D
:100A1000B4342000296809F09DFC002823D120006F
:100A2000A96809F097FC012300281DD170BD00239F
:100A3000DB00ED18224A6B681361E4E70023DB005A
:100A4000ED181F4A6B6853615EE70023DB00EB186B
:100A50001B4A5B6813607FE70023DB00ED18184A30
:100A60006B685360A1E70023DB00ED18144A6B6844
:100A70009361DBE70023DB00ED18114A6B68D3605C
:100A8000A7E70123E2E70123E7E70123D0E70123FA
:100A9000D5E70223D3E70223DFE70223D6E70323C8
:100AA000DBE70323D2E7C046002B0020E8AE0010AE
:100AB00008AF0010D8AE0010C0AE0010B0AE0010ED
:100AC000B42C0020F0B557464E464546DE46E0B50C
:100AD0008A4B8B4C99468B4BA54405938A4B8B4A8A
:100AE00098468B4B924606938A4B8B4A07938B4BC7
:100AF000934608938A4B8B4A09938B4B049203933A
:100B00008A4B4A464446994660AF10AE20AD0292E9
:100B1000029B1B78002B00D1EBE0002208A90A758C
:100B200005993C23403200910BA88021FFF7C0FCBF
:100B30000BA8FFF75FFD7E497C228846396061A8DB
:100B4000002102F0B3FA41463C22316011A8002195
:100B500002F0ACFA41463C22296021A8002102F0B3
:100B6000A5FA41463C22309131A8002102F09EFABC
:100B700041463C22409141A8002102F097FA4146AB
:100B80003C22509151A8002102F090FA210061A866
:100B900009F024FC210011A8783109F01FFC210084
:100BA00021A85A3109F01AFC210031A83C3109F082
:100BB00015FC210041A81E3109F010FC210051A8AC
:100BC000963109F00BFC06990123002200910BA835
:100BD0000021FFF717FD079910220B680BA80021D1
:100BE00000930123FFF70EFD0123182200210BA81B
:100BF0000097FFF707FD089920220B680BA800213A
:100C000000930123FFF7FEFC40A901232822009155
:100C10000BA80021FFF7F6FC099930220B680BA8FE
:100C2000002100930123FFF7EDFC50A90123382296
:100C300000910BA80021FFF7E5FC0BA8FFF716FDBC
:100C40003C4807F0E3FE0BA8FFF7D4FC039901230F
:100C5000002200910BA80021FFF7D4FC49460B6845
:100C60001022002100930BA80123FFF7CBFC0123E6
:100C7000182200210BA80095FFF7C4FC51460B6811
:100C80002022002100930BA80123FFF7BBFC0123C6
:100C9000282200210BA80096FFF7B4FC59460B68E8
:100CA0003022002100930BA80123FFF7ABFC30A9F1
:100CB0000123382200910BA80021FFF7A3FC0BA809
:100CC000FFF7D4FC1B4807F0A1FE0BA8FFF792FC2E
:100CD0000BA8FFF7CBFCDA2200215200200002F023
:100CE000E5F91C220021049802F0E0F90022029BA1
:100CF0001A70642007F08AFE0AE7C046D03102204D
:100D0000FCFDFFFFC8100020002B0020EC0F00208E
:100D10008CAC0010FC0F0020F40F0020F80F002016
:100D2000E80F0020B42C0020A4AC0010F00F00202D
:100D300020203E20B80B000010B5002807D0DA2292
:100D40000021520002F0B2F90022014B1A7010BDCE
:100D5000D031022010B5002806D01C22002102F05C
:100D6000A5F90022014B1A7010BDC046D0310220F7
:100D700030B583B00D0009F005FA04000020002C06
:100D800018D0280009F032FB211801AC0322200002
:100D900009F04EF82378313BDBB2082B00D98BE009
:100DA000464A9B00D3589F468300181840000A21EA
:100DB00001F06EFD03B030BD5A206378303BDBB2EA
:100DC000092B06D83E4A9B00D3589F46830018182B
:100DD0004000A378303BDBB2092BE8D8394A9B00AE
:100DE000D3589F460A20E8E71420E6E72820E4E7E6
:100DF0001E20E2E75020E0E74620DEE73C20DCE76B
:100E00003220DAE78300181840005A30CFE7830019
:100E1000181840005030DCE78300181840004630B6
:100E2000D7E78300181840003C30D2E78300181839
:100E300040003230CDE78300181840002830C8E762
:100E40008300181840001E30C3E7830018184000C4
:100E50001430BEE70130830018184000B9E7830062
:100E6000181840005A30B4E783001818400050307A
:100E70009DE7830018184000463098E78300181853
:100E800040003C3093E783001818400032308EE772
:100E9000830018184000283089E7830018184000A4
:100EA0001E3084E783001818400014307FE70130BB
:100EB0008300181840007AE700207EE710B1001088
:100EC00034B100105CB10010F0B557464E46DE4616
:100ED0004546E0B583B000AF06000C007A6009F02B
:100EE00051F9002853D02100300009F04BF90600D9
:100EF000200009F07BFAB2468244504609F076FAA7
:100F000003006A460733DB08DB00D21AE846954641
:100F1000E946D31A441E9D46834622005146484660
:100F20003B6008F085FF00234A4613555B46012BC2
:100F300034D948466A4600230130013A05E02129A8
:100F400018D80133D1549C4204D0C15C2C29F6D965
:100F50007D29F6D1002239687868CA5409F03EFA32
:100F60000120C546BD4603B0F0BCBB46B246A9460B
:100F7000A046F0BD22256D42A94689444D46EDB2FA
:100F8000A9464E46064DF540ED07DAD5E2E70522C3
:100F90000449786802F090F80020E3E70023D9E7DD
:100FA00021040000D0AA001010B50B490B4808F02E
:100FB000EDFB03210E2000F00DF903210F2000F0BE
:100FC00009F9002201210E2000F01EF90022012162
:100FD0000F2000F019F910BD801A0600C81000207B
:100FE000E12110B50B4C4902200001F081F80221EB
:100FF000012000F0EFF80221002000F0EBF80023C0
:1010000001222000082101F003F90121200001F054
:101010003BF910BD00400340F0B5DE4657464E4652
:1010200045461022E0B5534985B08B691A42FCD180
:101030001021504A93691942FCD1102112684D4881
:10104000D2B283691942FCD110214A4C0800A3692D
:1010500018401942FAD123684749DBB21B020A4003
:101060001A4394B2631E454A9BB293427AD8102326
:10107000434D40498A691342FCD101301E008A6900
:1010800016401342FAD10A682A54A042F2D301351D
:1010900029003C482E5503F005FE2800FFF74EFBC3
:1010A0002900394803F0FEFD384C394B2600270053
:1010B000220019682800FFF707FF364B1E36196813
:1010C00032002800FFF700FF334B5A3719683A0007
:1010D0002800FFF7F9FE78239846304BA0441968A2
:1010E00042462800FFF7F0FE962399462C4BA14478
:1010F00019684A462800FFF7E7FE2A4B28001B68BC
:101100009B463C239A46A24452465946FFF7DCFED2
:1011100059462800FFF72CFE234DA860FFF764FB1B
:101120002300B4330393534602934B460193434643
:101130002100320000931D483B0003F0B3FDFFF790
:10114000BDFBAC69EB686A6829680394AC68184811
:1011500002946C6901942C69009403F0A3FD0122B0
:10116000144B1A7005B0F0BCBB46B246A946A04667
:10117000F0BDC04600400340FF00FFFFFE0300003B
:101180008B220020BCAC0010D4AC0010002B00203F
:10119000FC0F0020F80F0020F00F0020EC0F0020C3
:1011A000E80F0020F40F0020B42C002018AB001032
:1011B00084AB0010D031022070B51024044DAB690F
:1011C0001C4201D1FFF728FF052007F01FFCF6E7BE
:1011D00000400340094A83009A1810B51468402261
:1011E000544080322240064CC000A44663441A603A
:1011F000044B9C466044416010BDC04604C00140A1
:1012000004D0014000400140074B8000C3181B6818
:10121000C90092000A435A400C231340034A9446E3
:10122000604403607047C04604C0014004D00140E0
:101230008023DB051868000F7047C0460FB400B567
:10124000084883B003F0A6FC049B002B07D005A937
:101250001800019103F0E4FA034803F09BFC01201D
:1012600003F0F6FAECAC0010ECAB001010B501483E
:10127000FFF7E4FFFCAC001070B5EFF3108C72B612
:101280000D4D2B68002BFCD0BFF35F8F0724CB08DC
:10129000C618C05C01230C40A3401C00044003425C
:1012A00007D118433070BFF35F8F2C608CF3108828
:1012B00070BD1000FFF7C2FF2C0100D0F8B5474603
:1012C000CE46884680B5EFF3108C72B6214D2C685F
:1012D000002CFCD0BFF35F8F9A422CD8D40807278C
:1012E000055D061901241740BC402C421FD0072180
:1012F0000127894609E0D408055D06194C463900E6
:101300001440A1400C00294211D001329342F2D284
:1013100001204042BFF35F8F00220E4B1A608CF316
:10132000108800280FDBC0BCB946B046F8BD254385
:1013300010003570EEE7BFF35F8F00232B608CF356
:101340001088012040424346002BECD00898FFF75C
:1013500075FFC0462C0100D0044A1078431CDBB254
:10136000172B00D9102313707047C04600100020BF
:1013700010B5064B064C82B00100009318221F23C3
:101380002000FFF79BFF02B010BDC0460CAD00105F
:10139000942600200021044B044ABFF35F8F02C350
:1013A0009342FAD17047C046000100D0800100D0BE
:1013B000054B064A1360064A136053609360D3607E
:1013C00013615361936170478080808000E400E086
:1013D00004E400E01F2318401E3B8340002905D091
:1013E000C021044A490053501360704780220149CC
:1013F0008B50FAE700E100E001228240034B1B68BA
:1014000013405A1E9341D8B27047C04600E100E035
:1014100001238340014A13607047C04600E200E0A8
:10142000084B10309B688000C358002B07D0064A39
:1014300000209B1A2F229A424041C0B270470020E0
:10144000FCE7C04600ED00E00410002070B50D0080
:10145000EFF3108672B60F4A1368002BFCD0BFF36F
:101460005F8F0D4B10309B6884001B590B4A9342D1
:1014700003D09D4201D001F02DF9074B9B681D510F
:10148000BFF35F8FBFF35F8F0022024B1A6086F3BA
:10149000108870BD240100D000ED00E0CD010010E7
:1014A000F0B557464E46DE464546E0B585B00600E7
:1014B00000911700EFF3108B72B66A4A1368002B85
:1014C000FCD0BFF35F8F0025674B5D579A46002D18
:1014D00000DAA9E06B00654C01935B199B0098460C
:1014E000A146C1444B4652469B7910361370604B5F
:1014F000B6009B6899590B1B2F2B33D95D4B994232
:1015000000D0ACE0019B42469C465B4B6544AD007D
:1015100063535A4B0232A218043B9B1A1B05584ACC
:101520005B0D651913436B80564B0121AB80FF2384
:10153000AB71009BEF71AB604B460B4319004C4BFA
:101540009B689951BFF35F8FBFF35F8F0022454BBC
:101550001A608BF3108805B0F0BCBB46B246A946B2
:10156000A046F0BD01200A008243D3798C46BB42DD
:1015700031D84546130044491B1B5B415943090DB3
:101580003D4B63533D4B02356519043B5B1B1B050B
:101590003B4D5B0D2B43AA464D466B800425AC4664
:1015A0005546E044131F44441B1B1B055B0D1D43A4
:1015B0004B46997100999D8099604946DF71334B84
:1015C00001431360BBE75800C01880002018C179A0
:1015D000B9422FD902000623D356002BF3DA029327
:1015E0002B4B61460393131D9A4604235B429C4692
:1015F000E14450464B461B1A1B055B0D9C46204B95
:10160000957198466346404603439380019B5A195F
:101610009200039BA418A380029B1C4AA371009B09
:101620002260E771A3608AE701F054F80025534671
:101630005D574FE7908802934005131D9A460315A6
:1016400061469C464046D444634604302018181A2C
:10165000E0230005400D1B0218430390C5E701F08D
:1016600039F84FE7240100D0D131022004100020C6
:1016700000ED00E0CD01001000A1FFFF34100020BC
:1016800000E0FFFF01BDFFFFAAAA0000014880475C
:1016900001BD000010B58308040003202040FF2492
:1016A000054AC0009446844081409B0063441A6808
:1016B000A2430A431A6010BD00E400E070B50124A3
:1016C0000443EFF30581EFF3108C72B6214A1368DF
:1016D000002BFCD0BFF35F8F1F4B05001F4AED1A94
:1016E0006D416A43120D1E4D8900AE6852B27658A4
:1016F000A6421CD00621595691421CD0122159569F
:10170000914222D01E215956914220D02A21595669
:101710000324914210D0134B19781A708171BFF3D2
:101720005F8F00220B4B1A608CF3108870BDAB6882
:101730000D4C5C50EFE700246100091989005B182B
:10174000FF21997109499980E5E70124F4E7022412
:10175000F2E7C046240100D004100020AAAA00002D
:1017600000ED00E0D1310220CD01001001BDFFFFEE
:1017700010B5084B084C82B00100009300220523ED
:101780002000FFF79BFD002801DB1F23181A02B081
:1017900010BDC04628AD0010D5310220024B9C463A
:1017A000614489000160704740000034F8B5124C74
:1017B000124DAC4212D20126002776422368002B3C
:1017C0000DD0FFF7C9FD01002000FFF7E7FF6660BD
:1017D0002772BFF35F8F0C34AC42EFD3F8BDFFF735
:1017E000BBFD01002000FFF7D9FF6660BFF35F8FEC
:1017F0000834AC42E2D3F1E7301600204016002056
:1018000010B50400FFF7A8FD01002000FFF7C6FF98
:1018100001235B426360BFF35F8F10BD10B504000E
:101820000120FFF7A5FD034BC3189B002360BFF306
:101830005F8F10BD40000034034B9C46614489001B
:101840000160BFF35F8F704740000034F0B5DE46A3
:1018500057464E464546E0B583B0EFF30582032375
:101860001340B54A990052580091904601229A407F
:10187000B24B93461A60B24B01932EE043469B88CD
:101880001BB2002B00DB99E043469B79002B00D074
:10189000DDE0434608241C5F002C00DA06E14346E5
:1018A0005A6963001B19DB00D3189D68DC686B1C48
:1018B00000D107E1A34B00999C4661449A6A0B69E9
:1018C000A81A9B1A984200D20D619E4800F0BAFBFC
:1018D0008C4200DDEAE000D126E15B469948436393
:1018E000434608229B5E9946002BC7DB424652695D
:1018F0005B0092464B44DB009A4453469E68DF6887
:1019000000F0A0FB8F42B9DC00D100E1002F00DA2B
:10191000E1E05246534654691B69019A934200D153
:10192000D4E0414652460820085E52880004210057
:101930001043984704000D0023002B4300D1CAE058
:10194000002D00DBE7E030003900001BA9415346C1
:101950009860D96000229A5E002A8FDB43465D6959
:1019600053009C18E4002C19A768E4688C4200DD41
:1019700084E702D1874200D980E7464632810836A3
:101980000DE08C4200D1D3E01E000023F25E002A5D
:101990000ADB53009C18E4002C19A768E4689B1824
:1019A000DB00EB188C42ECDD53461A804B4633804B
:1019B00043469B881BB2002B00DA65E743461A6951
:1019C000EFF3108172B61368002BFCD0BFF35F8F6A
:1019D00043469E88012342465B42938036B2136998
:1019E000BFF35F8F00221A6081F31088002E00DAA7
:1019F0004AE743465D69083342469C467700BF1973
:101A0000FF00EF19BB68604698460823D15E9246F6
:101A1000FC68002907DA0EE0A2424FD0180000232C
:101A2000C15E002906DB4B005B18DB00EB18DA68AF
:101A3000A242F1DD524606800023FE5E3980002E70
:101A4000DCDA904643469B79002B00D121E7002346
:101A500042469371434646460821595E08364B1C60
:101A600024D047468946556902E006004B1C18D031
:101A70004B005B18DB00E8180A008C46E95E4388DF
:101A80001BB2002BF1DA01235B42DC178360C460D8
:101A90004A4503D031803B8903803A81E1464B1CA3
:101AA000E6D14C46B846002C00DBF8E640BF03B058
:101AB000F0BCBB46B246A946A046F0BD9A68424576
:101AC000ACD9B7E7631C00D0F4E6FEE6200023693A
:101AD0009847002825D1534642461B881381126936
:101AE000EFF3108372B611680029FCD0BFF35F8F4B
:101AF0004246514652880A80424649465180126900
:101B0000BFF35F8F0021116083F31088B6E6864231
:101B100000D8FBE6B2E60B4800F094FA00196941E0
:101B200015E76568246807E7854200D8D5E6BDE774
:101B3000874200D828E737E7FC2C00203C7005409E
:101B40004D18001000400540074810B50268EFF33B
:101B5000108172B61368002BFCD0BFF35F8F05F0C5
:101B60001FFE0020002110BDB830002070B52E4CA3
:101B70002569002D04D00A212C48FFF70FFE70BD07
:101B80002B4E0321300000F053FAE660FFF7E4FB30
:101B9000284B03229C46D02322701B061B68012180
:101BA0006370254B6044A3600F23800020610220F6
:101BB000638063694942A1801980023119864731E7
:101BC0001D83585218315A5275325C399952183265
:101BD000013199521832013199521832013199521A
:101BE000083518329D52023118329952183201319B
:101BF00099521832013199521832013199521832E2
:101C0000013199521832013199520C4B0C49DC6068
:101C100001303562FFF71AFC01210320FFF7DAFBE0
:101C2000084B1D60A7E7C0464C100020B8300020CC
:101C30000040054040000034FFFF1000FC2C002055
:101C40004D18001038600540004870474C100020C7
:101C5000F8B51F0008AB1B7804001600002B08D154
:101C600000F0F8F932003B00121A8B41002B00DA29
:101C700053E02269EFF3108072B61368002BFCD09A
:101C8000BFF35F8F0223E15E63694A005218D200FE
:101C90009B18002937DB1A8862802269BFF35F8FA7
:101CA0000025156080F31088069A9E60DF601A6137
:101CB000079A5A615A8801325204520C101C002AA9
:101CC0001FD082B25880080410432669EFF31087B2
:101CD00072B63268002AFCD0BFF35F8FA2881A80E8
:101CE000A1802369BFF35F8F00221A6087F31088F9
:101CF0000B4923788C4601329A40E36863441A60AA
:101D0000F8BD0120DDE72369BFF35F8F00221A6071
:101D100080F3108801204042F2E70020F0E7C0463F
:101D20003C20000070B501000469EFF3108C72B61E
:101D300020680028FCD0BFF35F8F02200D5E4C6945
:101D400068004019C0002418002D37DB2088488027
:101D50000869BFF35F8F002606608CF31088E3608C
:101D600063880498013320615B0405985B0CA260D2
:101D700060611A1C002B1FD093B2280462801843A4
:101D80000A69EFF3108C72B61368002BFCD0BFF316
:101D90005F8F8B8823808D800B69BFF35F8F00225C
:101DA0001A608CF310880B7801329A40CB6808498E
:101DB0008C4663441A6070BD0122DDE70B69BFF3F6
:101DC0005F8F00221A608CF3108801204042F2E7F6
:101DD0003C20000010B543890A1493421ADD5300D9
:101DE0009B184269DB00D3180469EFF3108C72B6BC
:101DF0002268002AFCD0BFF35F8F5A88090494B28E
:101E0000090C8A4208D00369BFF35F8F00221A6071
:101E10008CF31088002010BD8022120214435C80D5
:101E2000012302698371BFF35F8F002111608CF37E
:101E30001088044902788C469340C26801206244AD
:101E40001360E8E73C20000040787047F0B5474653
:101E5000CE46040080B50D0096267642F717361957
:101E60006F4183B08F4215D812D000F0F3F83200E2
:101E70003B00121A8B41002B16DC002B40D02000B7
:101E8000290000F025F903B0C0BCB946B046F0BD4A
:101E90008642EAD90026002700F0DCF832003B0039
:101EA000121A8B41002BE8DD00F0D4F832003B0021
:101EB000121A8B41002B0ADB00230193124B3200D4
:101EC000009312483B00FFF72DFF0028D7DBB846F0
:101ED000B1460F4F0F4E7B6A984504D8BA6A9145B8
:101EE000CDD99845CBD13268EFF3108172B6136823
:101EF000002BFCD0BFF35F8F300005F01DFCEAE73C
:101F0000002ABCD0D0E7C046491B00104C1000206E
:101F100000400540B830002070B5060000F09AF887
:101F2000FA2204000D00002330000021920001F08D
:101F300049F88023001969411B06994202D3012008
:101F400002494042FFF782FF70BDC046FFFFFF7F9E
:101F5000F0B5CE46474680B504000D0083B0EFF3E0
:101F600005878846002F3ED12E4EA1463378F06873
:101F700004339B00816A1B58601A5B1A98420ED387
:101F800020BF294900204B6AAB4203D38A6A013043
:101F9000944231D803B0C0BCB946B046F0BD00F0A1
:101FA00059F822002B00121A8B41002B2FDB1F4BFC
:101FB0002200009330002B000197FFF7B3FE011EB3
:101FC00025DD194B5A6AAA421BD220BF3000FFF709
:101FD00001FF154A0020536A4345DBD3926A013062
:101FE0009145D7D908E0104900204B6AAB42D1D3C4
:101FF0008A6A0130A242CDD25B1B5A1E9341D8B2ED
:10200000C8E79B6A9C42E1D9AA42DFD1DDE7064AD4
:102010000020536A4345BDD3926A01209145B9D946
:10202000EAE7C0464C10002000400540491B001064
:1020300010B5024A0248FFF71FF910BD44AD001069
:10204000982600200300416A0A00986A596A8A4269
:10205000FAD17047034B596A0A00986A596A91424B
:10206000FAD170470040054070B504000D00174AD2
:10207000536A1900966A536A8B42FAD130001900EC
:1020800024184D41AB4216D813D0104A2B00526A87
:10209000954203D90D494A6A9A42FCD39A4207D124
:1020A0000A4A02E0516A994202D1916AA142F9D3E7
:1020B00070BDA642E9D9054B5B6A1C005A1CEFD0E3
:1020C000012301246442E5175B42E3E70040054039
:1020D000064A536A9942FCD807D1044B02E05A6A77
:1020E000914202D19A6A8242F9D37047004005407A
:1020F000F8B5040006200D0000F0E2F9002844D0F5
:10210000374B3849E3185A1E9341802212049446F3
:102110005B429B0D344A9B0563441360334A136052
:1021200018000A689043FBD12D4B314AE3185942FD
:102130004B4180215B0049000620995200F0C0F914
:102140002900C00000F0CCFB0130C3091ED140279C
:1021500001226262A362266BF30722D4E36A254B55
:102160000620E51800232B60266300F0A9F939004A
:10217000800000F0B5FB7023E26A5A400E33134032
:102180002B601D4B23630323A364F8BD1B4A9342BA
:102190001ED900231A4A1B4F6262A362266BF30703
:1021A000DCD5194B144AE3181A60656AA36A062045
:1021B000AD01ED1800F084F9144900F091FBAD0277
:1021C0000100280000F08CFB0021FFF74DFFC5E760
:1021D0004006800E9F011A003F180300B9E7C04671
:1021E0000080FCBF08C0004000E0004000F000405C
:1021F000C43000202C10000001030000FEFF00008E
:10220000FFFF0000C0FF3F00303000004E0E000016
:102210000539013AF8B5D2004C0105001443002BF2
:1022200006D0013B5A4253419B00234302241C43E6
:102230002E6BF30708D46E23EA6A624013400E4AFD
:10224000AA1813602E63F8BD0C4B0D4AEB181A60E8
:102250006F6AAB6A0620BF01FF1800F031F9094927
:1022600000F03EFBBF020100380000F039FB002106
:10227000FFF7FAFEDFE7C0462C1000003030000008
:10228000010300004E0E0000F8B5066B04000D01BE
:10229000F30708D4E36A5D4010231D400D4BE3189B
:1022A0001D602663F8BD0C4B0C4AC3181A60476AC0
:1022B000836ABF010620FF1800F002F9084900F008
:1022C0000FFBBF020100380000F00AFB0021FFF7FE
:1022D000CBFEDFE72C1000003030000001030000CF
:1022E0004E0E0000F8B5DE464E4657464546E0B570
:1022F0008B4605000A991800160000F0F1FA0A9BB7
:102300006C001F02324B64199C46A400644463684D
:1023100081469F4200D967602B1FDBB29846012B94
:1023200030D9C02380229B01E31812011A60294B87
:10233000AD0059599A4600291BD17301E026226845
:1023400053401E40802342465B01E3181E60012A71
:1023500030D9802380229B01E31812011A60534672
:102360004A4667605A51F0BCBB46B246A946A046F1
:10237000F8BD586900F0B4FA013043001B18033B64
:10238000FDD2DAE75B46012BCBD1C02303229B01B0
:10239000E3181A60023AA3681A42FCD07301E026DF
:1023A0002268AD0053401E4080230A4A5B019246DA
:1023B000E3181E605A462168514003220A401A6001
:1023C00001225B469A40A3681A42FCD0C1E7C0468E
:1023D000008000409C260020F0B546464F46D64679
:1023E000C0B51F00344B44009C462418A40064442C
:1023F000636888461600FF2B02D880235B00636069
:10240000031FDBB29A46012B30D9C02380229B01E7
:10241000E31812011A60294B850059599946002981
:102420001BD17301E026226853401E408023524690
:102430005B01E3181E60012A30D9802380229B01B2
:10244000E31812011A6080235B0063604B465F5102
:10245000E0BCBA46B146A846F0BD586900F040FA63
:10246000013043001B18033BFDD2DAE74346012B42
:10247000CBD1C02303229B01E3181A60023AA36860
:102480001A42FCD07301E0262268850053401E40AA
:1024900080230A4A5B019146E3181E604246216888
:1024A000514003220A401A60012342469340A26829
:1024B0001342FCD0C1E7C046008000409C260020AB
:1024C000014B8000C05870479C260020F8B50400DE
:1024D00021481E0017000D0000F002FA010038002C
:1024E00000F0FEF9069B36041B031E432368002BF5
:1024F00020DB1A4B1A49E3185A1E9341802292019D
:1025000094465B421B0B174A1B0363441360164A35
:1025100013601F000A689743FBD1144B2560E21833
:102520002123A06013602368002BFCDA0823E660F7
:102530001360F8BD3F2322681340AB42D9D1A36892
:102540001B051B0D8342D4D1EE22E368D202134057
:10255000B342CED1EDE7C046001BB7000040FDBF3F
:1025600008C0004000E0004000F0004004300000DF
:1025700010B580241C4BE4051C6000281AD00123F0
:102580001A4C18431A4BDC611A4C44401C625962C5
:1025900098628021144BC9051960174817490860D3
:1025A000E021C9041960002A07D18022144B1206C9
:1025B0001A6010BD0E4BD861EBE753019B1A9B00CC
:1025C0009A18802312015B049A4209D213000D4924
:1025D0000B60074B5A608022094BD2051A60E8E76E
:1025E000094B1A00F3E7C04600B00540D3C007B05E
:1025F000008005402D3FF84FFCFF010008200140FE
:1026000000A00540D42C0020FFFFFF008023024AD9
:102610009B000B43D362704700800540142310B524
:102620000100188804331B88984710BD162310B585
:102630000100188802331B88984710BDF8B547463B
:10264000CE4680B50F1E19D01423994604330400DA
:102650000025012698464B461888434621681B886A
:10266000984701C4431E9841013540420640AF429D
:10267000F1D13000C0BCB946B046F8BD0126F8E73C
:10268000142370B50400188804331B880D00054915
:10269000984703000020002C01DB0130A0402900F6
:1026A0009847C04655420000AA23064A1B01136002
:1026B0002F230549D360054B19605368002BFCDAC2
:1026C0007047C0460040024000B0FA00006002407F
:1026D0007047C04610B50148FEF7B0FD68AD001068
:1026E00070B5074D074EB54209D20024013E761B56
:1026F000B60808CD984723000134B342F9D170BD24
:1027000090A80010CCA80010054B064A06491A6094
:10271000064A074B1A6010000B689843FBD17047BC
:1027200000E00040BFCDFBFE08C00040FE7F3C0043
:1027300000F00040044BDB6C002B03D18022034BE4
:10274000D2021A607047C046000011504C20115050
:10275000044A054B1A60054A1368DB018033FBD13C
:102760007047C046FFFFFF0100F0004008C0004076
:102770004022034B9A675A671A67DA667047C04669
:1027800000F0014010B5FEF705FE10BD70B5044D18
:10279000044CA968C022200000F08EFCAC6070BD23
:1027A00000ED00E000000020002310B5294C82B0AD
:1027B000A367FFF779FF0122274B1A60636C012B97
:1027C000FCD10322254B1A60224A936B012BFCD1CA
:1027D000013300930121224A22480433FFF776FE99
:1027E000052301210093204A2048FFF76FFE0022B5
:1027F000022104201E4BFFF7EFFD002201210520DE
:102800001C4BFFF7E9FD0022002107201A4BFFF7C0
:10281000E3FD002200210820174BFFF7DDFD802398
:10282000DB000093002200210920134BFFF75AFD23
:102830000022104B00210620FFF7CEFD0420FFF7F9
:102840003FFE0E4900F04CF801000020FFF7DEFECD
:1028500002B010BD008000403CB0004030B00040ED
:10286000002F685900800240008C864700C002405B
:10287000001BB70040597307006CDC0240420F0098
:1028800001480421014B1847701000203D2600101C
:10289000124A936F9B0815D29066D166002905D025
:1028A000FFE7FFE7FFE7516F106F704704B5802126
:1028B0000906C2175140002800D0C84307F098FF0E
:1028C000002104BDF0B5146E556E576F166FFFF7FB
:1028D000E3FF1466556657671667F0BD000000D029
:1028E000114A936F9B0813D210665166002905D0D8
:1028F000FFE7FFE7FFE7516F106F704704B500284F
:1029000001D00020C04307F073FF002104BDC04682
:10291000F0B5146E556E576F166FFFF7E5FF14662E
:10292000556657671667F0BD000000D094464A4AC6
:10293000926F9208624601D228E0C046F0B5464E3A
:10294000346E756E776F366F00F020F89446424A09
:1029500014665566576716676246F0BD94463E4A50
:10296000926F9208624601D254E0C046F0B53A4EEA
:10297000346E756E776F366F00F04CF89446364AB9
:1029800014665566576716676246F0BD002B24DB58
:1029900011D000293EDA00B5C943404200D10131CF
:1029A00000F038F8C943404200D10131DB435242C4
:1029B00000D1013300BD002AEBD1002801D100294C
:1029C00005D00020C90FC90701D1C043410800B597
:1029D00007F006FF0022002300BD00B500290ADB36
:1029E000DB43524200D1013300F014F8C9434042A6
:1029F00000D1013100BDC943404200D10131DB4368
:102A0000524200D1013300F005F8DB43524200D1BD
:102A1000013300BD002923D1002B18D1002A0CD08E
:102A2000BC460D4F38667A6600210023FFE7FFE7BA
:102A3000FFE77A6F386F67467047002801D0074874
:102A4000010000B507F0CCFE0022002300BD02000B
:102A50000B00002000217047000000D0FFFFFFFFA7
:102A6000002B00D0BFE0130C28D1002AE7D080B49F
:102A7000114F39667A66FFE7FFE730B4040C7B6FCD
:102A8000396F1B0423433B667A66FFE7FFE7FFE7E6
:102A9000C04684B27B6F3D6F1B0423433B667A665E
:102AA000FFE7FFE7C04600232C042D0C7A6F386F38
:102AB00000196941B0BC7047000000D0F0B59446E1
:102AC0000025140E01D112020835140F01D1120194
:102AD0000435940F01D192000235D40F01D1520078
:102AE0000135D40B0134254F7C66254C3C660E0C19
:102AF00093B2FFE7FFE7FFE73C6F6643360C7703CF
:102B0000BE467343DF0B5B04C01AB941130C734319
:102B1000DB18C91ACE086643360CB64493B2734329
:102B20001F0F1B01C01AB941130C73431F0B1B0568
:102B3000C01AB941860D8F023E436643360C092DFB
:102B400024DB520A7243801A7703460A6643360C26
:102B500016235B1BDE40DF40BF1964466643821BC1
:102B60007046043506330100D940A840C01900D38F
:102B70000131A24206D20023F0BD0000000000D0C7
:102B8000FFFFFFFF121B0130F3D3F1E709277F1B83
:102B9000FE406446A2B27243801A00D20139220C70
:102BA0007243130C1204821A99410B0070460435CB
:102BB00013370100F940A840801900D30131002BE0
:102BC00002D1A2420AD2F0BD013000D30131121B62
:102BD000FAD2013BF8D1A24200D2F0BD013000D3BD
:102BE0000131121BF7E7F0B51C0C00D080E00CB4EB
:102BF00000251C0A04D11B02160E334312020835AD
:102C00001C0B04D11B01160F3343120104359C0B1E
:102C100004D19B00960F334392000235DC0B02D1A6
:102C200092185B4101351C00971864410134464FEE
:102C30007C66464C3C660E0CFFE7FFE7FFE7C046AC
:102C40003C6F6643360C7703BE4697B27743C01B92
:102C500000D20139C01B00D201399FB27743C91B92
:102C6000C91B170C77437E04FF0B801BB941CE08AC
:102C70006643360C0C2D33DBB644120B1F053A436A
:102C80001B0B97B27743C01B00D201399FB2774329
:102C9000C91B170C77433E043F0C801BB941860DBE
:102CA0008F023E43664329277F1BFE400C3D77463B
:102CB000AF40BF1930BCA2B2ABB272437343801AAB
:102CC0009941220C7243130C1204801A994102009C
:102CD0000B000137001BA941F9D2781E0021F0BD7D
:102CE0000C277F1BFE4077467F0BAF40FF19E0E7C4
:102CF00000245D1C07D0144F7D663966FFE7FFE7AF
:102D0000FFE7FFE73C6F95B29EB265436643401B09
:102D1000B141150C1E0C6543664336042F0C3E432F
:102D20002D04401BB141994204D202000B00200047
:102D30000021F0BD01D19042F7D3801A99410134AE
:102D40009942F2D3F6E70000000000D0FFFFFFFF3A
:102D500048404140484018B4134B5B68019308BD9C
:102D600018B4114B1B68019308BD94460F4A926F2B
:102D7000920805D2624618B40B4BDB68019308BD7C
:102D80000A4AF0B5146E556E576F166F6246FFF71C
:102D9000F2FF064A1466556657671667F0BD18B409
:102DA000014B9B68019308BDC8170020000000D0AC
:102DB000FFB550404240504059404B40594000E020
:102DC000FFB5154F4C00640D03D0BC4204D10C0379
:102DD00014D80020090D09055C00640D03D0BC4225
:102DE00004D11C030AD800221B0D1B0501264B40F1
:102DF00009D44B4003D58B4200D18242FFBD99429A
:102E0000FCD19042FFBD0B43DB1803431343F5D0C5
:102E1000C9434918FFBD0000FF07000000B5FFF7D8
:102E2000CFFF804100BDC04600B5FFF7C1FF01D90B
:102E3000002000BD012000BD00B5FFF7B9FF8041B3
:102E400000BD012040054A00121804D85A0012188B
:102E500001D80020704701207047000000210028A1
:102E600005D17047C1174840401AFAD0C90713B5B9
:102E7000064B1B6898470CBC441CA2401005120B63
:102E80000349091B09051943114310BDB42F002044
:102E90001F04000010B54C00620D8023D218DB0027
:102EA000D21A5B057E2A10DD9E3A13DACC1709038D
:102EB000490819435242D140640001341532202A96
:102EC00005DAD0400843604310BD002010BD08461D
:102ED000604310BDC80FC018013810BD18B4024BB4
:102EE0005B6A019308BD0000C817002010B50148B7
:102EF000FEF7A4F974AD0010132370B51D78012DF1
:102F000019D014DD1D48FFF791FB06001C48FFF7A0
:102F10008DFB1C4C80223100200000F0CDF8022DEA
:102F200006D01948FFF77AFB184B186070BD154C96
:102F3000174BA364F5E7174B124C23606360A36043
:102F4000E36023616361A361E36123626362A3625F
:102F5000E36223636363A363E36323646364A3643F
:102F6000E36423656365A365E36523666366A3661F
:102F7000E36623676367A367E367D9E75344000009
:102F800053460000C81700204C330000B42F002027
:102F9000992F0010ED2E001007B5604601880A0A2F
:102FA0000230DF2AFAD1C9B2820804D302884088ED
:102FB0000004104300E00068014A5050039007BD30
:102FC000C817002051434343C9188C46110C83B2E3
:102FD0004B4310B4040C614392B280B2504362433D
:102FE0001C041B0C001910BC59411304120CC0180E
:102FF000514161447047000010B50148FEF71EF9C9
:1030000030AA0010132310B510481C78FFF70EFBF0
:103010000100012C0AD003DD80220D4800F04CF89D
:103020000C48FFF7FBFA0C4B186010BD084C5422FB
:10303000200000F041F82200084980322368002B6C
:1030400000D1216004349442F8D1E9E753460000EE
:10305000B82F00204C330000B42F0020F92F0010AF
:1030600070B504000A4E300007F00AFC200006F09C
:10307000BFFB0500300007F0ABFB002D05D0054B72
:103080002C199C4201D8280070BD0348FEF7D6F8E1
:1030900030160020000004208CAD001001480421EF
:1030A000014B1847801000203D260010014B1B6883
:1030B0001847000080100020014B5B681847000093
:1030C000801000209A4200D2885470477047C04652
:1030D000F8B55746DE464E464546E0B599460A9B4A
:1030E00007009A460D9B884693460B9C9B073BD155
:1030F0000C9B9C423DD21E1B0B9415000C005E44A1
:103100002A004B46013521002020B847B542F7D1AF
:10311000A0460B9C002C20D0454636195346321B46
:10312000013C185D29004B46B847002CF6D12B0016
:10313000350098460D9B9B070FD55B46EC1A0C9B00
:10314000A3420AD9464698462A004B463100202021
:103150000134B84701354445F6D32800F0BCBB46DE
:10316000B246A946A046F8BD16001500002CD3D1E2
:10317000E0E71600002CCFD11500EEE7F0B54F4682
:103180004646D646C0B584B098460EAB1B789446EA
:103190009946129B0D9C109F119E9A0725D4002ED4
:1031A00065D1BC4221D201221A409246202C00D186
:1031B000E9E00C9A551E302202E0202C00D17BE081
:1031C00001342A55A742F8D85246002A0DD0B442FD
:1031D0000BD20C9A551E3022202C02D171E0202CEB
:1031E0002DD001342A55B442F9D1DA063CD55A051E
:1031F0002ED4002C28D10F9A102A00D1B6E0022A32
:1032000000D1BCE030220C9C227001244A46002AE6
:1032100065D15A0700D499E02B220C9D2A55013420
:1032200003930C9B62460093029643460194FFF77A
:103230004FFF04B0E0BCBA46B146A846F0BD20241A
:10324000DA06EDD55A0503D4A74266D0B44264D05D
:103250000F9A102A71D0022A57D0202CE0D02200D9
:10326000013430250C9FBD54202CD9D0CEE701224B
:1032700015001D40AA461A4236D04A46002A4AD1B5
:103280000C321A4247D1BC42A1D2202C91D1202E1F
:1032900017D82024DA06C3D55A051BD4202F01D015
:1032A000202ED5D11F220F9D102D6FD0022DD8D1E9
:1032B00062250C9FBD54D0E75246002A79D0202EBB
:1032C000BDD92024DA06ABD55A0503D4202FE9D086
:1032D000202EE7D00F9A102AA2D12024A0E72D2279
:1032E0000C9D2A5501349BE7BC4200D37DE7202C7E
:1032F00000D05EE7DA06F0D55A05EED4202F62D072
:10330000202EEAD134001F22CDE7202C00D187E700
:1033100022000134CCE7013EB5E7621E012CC2D188
:103320000F9A102A00D06AE79A063BD558220C9CC7
:103330002270283A6270022468E79A060ED4202C84
:10334000CBD078220C9D2A55013486E71A0700D489
:1033500066E720220C9D2A55013461E7202CBCD061
:1033600058250C9A12191570013476E79A0608D57B
:1033700058220C9C227030226270022446E7603290
:10338000F7E77822F5E7002A83D1B3E7A21E013CD4
:103390009D0603D478250C9FBD5460E758250C9FEB
:1033A000BD545CE778220C9C2270483A627002247B
:1033B0002CE7DA0600D433E75A058BD4202F00D04F
:1033C00044E71F226FE73C001F226CE710B500287E
:1033D00000D110BD01F092FBFBE7C0460B0010B519
:1033E000002802D049681B68984710BDF0B55746C1
:1033F0004E464546DE46E0B599B08246894690463F
:103400000893229A239B10001900FFF71AFD002849
:1034100000D0CDE0229823990122D94B5242FFF7E8
:103420000BFD002800D0C3E0229823990122D54B40
:103430005242FFF7F3FC002800D0B9E0229823990C
:1034400000220023FFF7EAFC002800D0F1E1229ED1
:10345000239F8023269ADB001A400D92269A1A4257
:1034600001D1062324938023269A1B011A403B0096
:1034700093460996334300D0B3E0002A00D0C2E15E
:10348000002300240A930B94002304250993259B11
:103490000024AB4200D95C1B0223269A1A400C92EE
:1034A000269A134203D06B426B415B421C40099B3E
:1034B000002B07D00A9A0B9B30003900FFF755FC10
:1034C00006000F002298239900220023FFF7A6FC94
:1034D000002803D0802109067B181F00269AAA4BDA
:1034E000009601971340089E0493249B0394029333
:1034F000424633004946504600F0AAF90400002D28
:1035000067D02020269A4946024013005A42534170
:103510005B42621C18400A92330022004530D047BB
:10352000099A6F1ED317D4185C40D30F9B46002511
:1035300001E0202D13D008AA94461F2320006344E5
:103540000A2101355E19FFF7CBF9303131702000C7
:103550000A21FFF7C5F926000400092EE9D8052342
:103560000693002304930A3303935B46089E029359
:1035700010AB0A9A009349463300504605970195CF
:10358000FFF7FCFD0C9A0400002A22D04246851A5F
:10359000259AAA421DD9B046574616002200434636
:1035A000494620200135B8470134AE42F6D810E034
:1035B000269B42460493259B49460393249B5046F1
:1035C0000293229B239C00930194089B00F040F9F6
:1035D0000400200019B0F0BCBB46B246A946A04684
:1035E000F0BD6A4B78009C46400D6044FFF73AFC02
:1035F000674A684BFFF7D3FB674A684BFFF7B0FB9E
:10360000674A3B031B0B1A4304000D000998110085
:10361000644B0022FFF79FFB634A644BFFF7BFFB3D
:1036200002000B0020002900FFF79AFBFFF732FC95
:103630000990FFF717FC5E4A5E4B04000D00FFF790
:10364000AEFB00225C4BFFF78BFBFFF723FC5B4AD2
:103650005B4B29000C902000FFF7A1FB04000C98A5
:103660000D00FFF7FFFB574A574BFFF798FB02008F
:103670000B0020002900FFF76EFB04000D00020084
:103680000B000A940B95FFF78AFB04000D000A98C3
:103690000B9902000B00FFF763FB00220E900F91C5
:1036A0004A4B20002900FFF760FB0022484BFFF740
:1036B00057FB02000B0020002900FFF756FB0022F9
:1036C000444BFFF74DFB02000B0020002900FFF7E1
:1036D0004CFB0A9A0B9B0D0080210400C9050020B9
:1036E000FFF739FB02000B0020002900FFF738FB31
:1036F00002000B000E980F99FFF737FB0022284BB2
:10370000FFF72EFB344B0C9C9C466444230500229F
:10371000FFF745FB04000D0002000B0030003900EC
:103720000A940B95FFF77AFB00285DD123002A004D
:10373000C625099963318D42AD4159466D42043524
:10374000002900D1A3E6134363D030003900234A97
:10375000234BFFF769FB002807D000223000390017
:10376000204BFFF75BFB002853D1249B002B00D19B
:103770008DE60D9B5A1E9341249AD31A249386E614
:10378000FFFFEF7FFFFFEFFFFFF7FFFF01FCFFFFF2
:10379000FB799F501344D33FB3C8608B288AC63F40
:1037A0000000F03F0000F83F61436F63A787D23FFE
:1037B00071A379094F930A400000E03F1655B5BB4D
:1037C000B16B0240EF39FAFE422EE63F00002C407A
:1037D0000000244000001840FF0300002D431CEBB4
:1037E000E2361A3F80842E41099B0022013B099357
:1037F0002000164B2900FFF7B8FA0A000100030069
:103800000A910B9294E7002300240A930B9400235F
:103810000993249A099B9A4214DDD31A013B2493FD
:103820008023269ADB001A43002300252692099361
:103830002DE6802212069446229B1E00239B6344A1
:103840001F0006E600232493EAE7C0460000244058
:10385000F0B54546DE464E465746E0B595B08B4638
:10386000904699461E9A1F9B0A9019001000209DB1
:10387000FFF7E7FA002800D0B0E11E981F99012257
:10388000C74B5242FFF7CAFA002800D037E11E9812
:103890001F990122C34B5242FFF7CEFA002800D0F5
:1038A000A7E01E981F990022BF4BFFF7C5FA00281A
:1038B00000D088E01E981F990022BC4BFFF7AEFA9B
:1038C000002800D07FE01E981F9900220023FFF7F8
:1038D000A5FA002800D0FAE000230B938023229C55
:1038E000229ADB001C401A4200D102E1092D00D8C7
:1038F0007CE106A98C462C00172200233021093CCC
:1039000062440133D154EF1A202B00D132E1A3429B
:10391000F7D10022A44B069207931E981F99FFF738
:10392000B9FA0500FFF79EFA02000B001E981F99D6
:10393000FFF711FA069A079BFFF731FA08900991F1
:10394000FFF7CCFA0600FFF789FA02000B0008988F
:103950000999FFF700FA0022954B08900991FFF7AB
:103960006BFA002800D1D2E001363000FFF776FA7A
:10397000069A079BFFF758FA002801D00026013568
:10398000AA46002F00D098E02800FFF76BFA02004B
:103990000B001E981F99FFF7DEF9854B00220600E9
:1039A0000F00FFF73BFA0CAB9A46002845D10022E6
:1039B000300039007E4BFFF73FFA00283DD1EB077E
:1039C0003BD5013539E0229B42460493219B594661
:1039D00003930A981E9B1F9C0295009301944B46EB
:1039E000FFF704FD15B0F0BCBB46B246A946A046A1
:1039F000F0BD229B5B0767D403226E4B2299019294
:103A0000039121990291009342464B4659460A98E8
:103A1000FFF75EFBE6E706AA9446172328006344F7
:103A20000A2101341E19FEF733FF303128003170AE
:103A30000A21FEF72DFF051E76D0202CEBD10323A3
:103A4000229A1340012B1DD1219B002B1AD00B9BD6
:103A5000002B00D0BBE0229A0C33134200D0B6E01A
:103A6000219BA34200D887E006AB9C461722302357
:103A7000624404E02199013413558C4259D0202C22
:103A8000F8D12024229B01940393219B0293534657
:103A9000B9E706AA944617230A216344300001348B
:103AA0001D19FEF71DFF3031297030000A21013F3A
:103AB000FEF716FF092E46D90600202CE9D15546FF
:103AC0000CAB20249A46B8E704223B4B96E71E9A9B
:103AD0001F9B00200021FFF73EF901230B93802359
:103AE000229C229ADB001E901F911C401A4200D09B
:103AF000FCE60022314B0627069207930DE7229B36
:103B00000393219B0293042301932D4B7BE7002217
:103B100008980999264BFFF781F9002800D02FE774
:103B2000002E4FD101362BE70323229A1340012B9D
:103B300066D0202CA6D00B9B002B1FD02D235246E5
:103B4000135501349EE75546202CB9D030233A193D
:103B5000002F08D0172006A9013409180B55202C76
:103B6000AED09442F6D10CAB9A462E235246135552
:103B7000013462E72024CCE6202C83D0229B5B0713
:103B800008D4229B1B0700D47CE720235246135500
:103B9000013477E72B2352461355013472E7C046B0
:103BA000FFFFEFFFFFFFEF7F65CDCD4165CDCDC1BD
:103BB0000000E03FF4AD0010ECAD001080842E4119
:103BC000FCAD0010F30700D4DAE60136D8E6219BFD
:103BD000013B2193A34200D946E7AAE7229B039326
:103BE000219B029303230193074B0CE7074BEA0049
:103BF0009B185C681B682F000693079400248CE6D2
:103C0000219B002B95D022E7F8AD001078B300106F
:103C1000F0B55746DE464E464546E0B5A5B01F0016
:103C20002E9B91460D93CA4ACA4B82468B461A6018
:103C3000002900D129E2002338789846002800D1D5
:103C40002BE2C54B44460C93C44B55464E460E934F
:103C50000AE0631C9846220033005946A8474446B0
:103C60003878002800D187E001372528F1D10823D2
:103C70009A46043B9946023B9846013B00229C46EB
:103C80000B943878791C0300203BDBB2102B03D84F
:103C90000C9C9B00E3589F460300303B0B9C0B920F
:103CA000092B3AD9002398462A2800D1DDE00023C9
:103CB0009A462E284BD00300683BDBB2122B1ED84D
:103CC0000E9A9B00D3589F4663460F001A43D8E7CD
:103CD00043460F001A43D4E74B460F001A43D0E780
:103CE00010230F001A43CCE753460F001A43C8E7CE
:103CF00080235B000B9A78781A430B9201310F00F6
:103D000067284FD82428A4D90300253BDBB2422BD7
:103D10009FD893499B00CB589F46002398460B9B06
:103D200047469C4600E00131BB00DB195B001F18D1
:103D30000878303F0300303B092BF4D963460B93DE
:103D40000023B8469A460F0001312E28B3D18020B7
:103D50000B9AC00002430B9230225242944678786C
:103D60000B0084446246092A00D8AAE12A2800D11F
:103D7000B9E10F0001319EE7A046AA46B146C84509
:103D800003D301235B424B4498464B464246594677
:103D90000020D047200025B0F0BCBB46B246A94663
:103DA000A046F0BD01006939C9B20F2900D950E71A
:103DB00001238B409C466B4B994663464A46134011
:103DC0000F9362464B461A4200D068E10A2956D04A
:103DD000072900D03DE70D9B02CB9846002900D073
:103DE00092E10B9B10211A008A4310001131084305
:103DF000814680201A00C0000240110003421CD1FD
:103E000014AB9C461F220F2362440D959C4615005F
:103E10000F9B0B9402E0202B0CD0110064460C4049
:103E200020003730092C00D807380133E8540A093C
:103E30000F29F0D80B9C0D9D0F934B46082206933B
:103E40005346059208320392002204930F9B02927C
:103E500001931CAB22000093594633002800FFF762
:103E60008DF9434604000D93FAE60D9B04CB904672
:103E7000002A79DB78780D930F00013117E70D9B4D
:103E800002CB14930B789C4618005346002B00D1AC
:103E900034E1002815D05346013B013399460D9477
:103EA0000B9C89444A460B00A14601E0934203D093
:103EB0005C780133002CF9D14A465B1A0D9C0B92B9
:103EC0000F938023DB0099460B9A13400D934B46CA
:103ED0001A4204D00F9B534501D953460F93022336
:103EE00099460B9A13400B934B46134200D1F5E1D0
:103EF0006346002B00D1D6E10D9B002B00D182E15F
:103F00000B1BD14631009A463B00A1442E005F4670
:103F10004D4622009B46894609E04B463900541C19
:103F2000B0475346185D002800D192E12200954227
:103F3000F3D14B465A46A946BB46350017001E0032
:103F40004C460B9B002B00D0ADE1149B0D9387E6F4
:103F5000113C0010D02C0020D8B100101CB2001071
:103F600068B20010419000000B9A283802430B926F
:103F700042465242787890460F000D93013196E602
:103F800078786C2800D15DE180230B9A5B001A439E
:103F90000B920131B3E680239B00ABE6787868286A
:103FA00000D148E180230B9A01311A430B92A6E617
:103FB000672800D1B2E0472800D11AE1452800D196
:103FC0001CE10B9A0721049242460D9B0392073392
:103FD00052468B43190002920CC9280000920193AB
:103FE0000D91220033005946FFF700FA040037E62E
:103FF000462800D18DE00B9A0721049242460D9B82
:104000000392073352468B43190002920CC92800D1
:10401000009201930D91220033005946FFF718FCDE
:1040200004001DE6631C98462200330059462520F3
:10403000A847444614E60D9B04330F93631C99462E
:104040000B9B9A0700D40AE10D9B22001878594671
:104050003300A84743464444012B00D86FE1B046E3
:104060002E0025004C46B9465F46220043460134E7
:1040700039002020B047AC42F7D12C00BB463500B8
:104080004F4646460F9B0D93EAE5D64B38789A4645
:1040900000239846002800D0D3E500246FE66F285F
:1040A00042D000D8FDE11023782800D19BE00B9A84
:1040B0009A430B920A239C46002314930A330F93CE
:1040C00038E057460B9AB900C919490001330F1857
:1040D0001878303F010030390929F4D9BA460B92DB
:1040E0001F00591CE7E50D9BB87804CB0237D1437C
:1040F000C9170A4092460D93791CDCE5002800D1CF
:10410000DFE602235B42C8E621200B9A0243914678
:1041100076E620230B9A1A430B926CE780230B9AC6
:104120001B011A430B924CE708239C46002314936F
:1041300008330F930B9880230200DB001A40110014
:104140000200184200D080E00C239A431000802324
:1041500002009B001A400B92184200D0F1E080232D
:1041600002005B001A4091460D9A043214921842E4
:1041700000D0C3E2430600D5D7E0030600D421E314
:104180000D9B1B880993002B00D02DE11033984321
:10419000002900D128E10023994643460593534660
:1041A00004930F9B06900393002302934B460193C5
:1041B0001CAB22000093594633002800FEF7DEFFB7
:1041C0000400C2E6582809D0622800D0E3E20223A6
:1041D0009C460023149302330F93ABE720230B9AE2
:1041E0001A430B92103B9C460023149310330F93F9
:1041F000A0E780230B9A1B011A430B9220230B9AF2
:104200001A430B92DDE60B1B9A460F9B99463B0027
:1042100037005E469B4622003B003100A8475346CC
:104220000134185D0028F6D14B460F935B46B34628
:104230003E001F0085E6C0230B9AB8781A430B9204
:10424000F91C5CE5C0239B00F6E70D239A431000A0
:104250007DE75B463500BB464E461F0071E6434690
:10426000012B66D9631E434432002E001D003B0023
:10427000A2465F4691469B4622004B4601343900D8
:104280002020B047AC42F7D15B463500BB464E46D6
:10429000A14654461F000D9B4A46187859463300E4
:1042A0004444A847EEE60F9BA146984500D84CE64B
:1042B0004444E41AB0462E0025004C46B9465F46F9
:1042C00022004346013439002020B047AC42F7D1E8
:1042D0002C00BB4635004F46464636E60F988045D3
:1042E00000D873E24346E218131A32002E001D0074
:1042F0003B0091465F469B460F9122004B4601349E
:1043000039002020B047AC42F7D15B46BB461F00C6
:1043100043460F9901330F930B7835009C464E4668
:104320006046002800D0E7E50FE60D9B1B78099357
:1043300029E70D9B2200187859463300A8474C46C0
:10434000A0E60D9AFA3BFF3B07329A4301339946A8
:1043500091444B460D931368526815921A4306D147
:104360001032904300220992002900D083E061229C
:10437000810600D54122D2B20A9214AA91460A9A25
:1043800000210A3A0B9242461792524618925A4618
:10439000B24609911E001F31149B4944BB46169436
:1043A0001A950024674698468946159D19901B92D8
:1043B0000AE03032D2B24B4601341A55A8454CD0EF
:1043C000202C4CD006000D003A00002330002900BC
:1043D000FEF7C4FAD2B2092AEBD90B9B9C46624481
:1043E000D2B2E8E7CD3000106123820600D5412328
:1043F000DBB20A3B0B93434614A91F228C4615934C
:1044000053466244B2460D9417974C468046A946DF
:104410001700099D0F9E169308E03033DBB201347C
:104420003B55B5420ED3202C0CD00500310028009E
:10443000FEF756FACBB20929EFD90B9A944663449A
:10444000DBB2ECE7159B40469846169B4D46564618
:10445000A1469A460D9C179F9FE6B742B0D9179B7D
:1044600056469846189B5F469A461B9B09949B4666
:10447000169C19981A9D43460593534604930F9B27
:104480000690039300230293099B01931CAB220027
:104490000093594633002800FEF770FE0400FFF732
:1044A000DFFB10230B9A9A430F92692800D091E109
:1044B0000B9980230A00DB001A4010000A00194201
:1044C00003D0112118008A430F920F9A8023110004
:1044D0009B0019408C461A425BD1802311005B007F
:1044E000194089460D9904310B911A4200D0B2E06F
:1044F00013005B0600D4EDE00D9B1B781A00D90F6A
:104500000D91002B00D1A3E0100014AA944642465E
:104510001F23159252466344A846BA464D4614944A
:10452000B14604001F00169201E0202D0FD020009C
:104530000A21FEF7D5F901357E193031317020009E
:104540000A21FEF7CDF926000400092EEDD8159BAF
:104550004E46A94645469846169B57469A46149C91
:104560000F9B069343460593534604930A230393F4
:104570000D9B02934B4601931CAB220000935946BE
:1045800033002800FEF7FAFD0B9B04000D93FFF7A4
:1045900067FB07220D9B07339343013294469C44EB
:1045A00062460D920CCBD90F0B911100194300D12B
:1045B0009BE0D917139112915140109113995940D2
:1045C000119110981199129A139B801A9941109089
:1045D000119114AA944642460023159252469946D8
:1045E000169232001F336344A8464E46BA461494CE
:1045F0001F00109C119D914601E0202E10D020003C
:1046000029000A220023FEF7A9F9013630322B00D7
:10461000BA550D0022000400002BEED1092AECD877
:10462000159B10941195454698464B46169AB146EF
:1046300057461E009246149C0F9B069343460593D3
:10464000534604930A2303930B9B02934B461CE7A8
:10465000002885D159E70D9B1B68DA0F1100002B4C
:1046600000D1A6E0DA179818504014AA91461F23EB
:1046700042464B44A8460D94169704006546B14641
:104680001F001491159201E0202D0FD020000A2167
:10469000FEF726F901357E193031317020000A21EC
:1046A000FEF71EF926000400092EEDD8159BAC4636
:1046B00045469846149B4E4619000D9C169F0F9B2D
:1046C0000291069343460593534604930A230393AA
:1046D000634650E713001B066ED50D9B00229B5EC0
:1046E000D9175A184A4092B209E700239946002880
:1046F000A2D100220023109211936AE70D9B1B6840
:104700009946002B03D110339843002938D16123F7
:10471000820600D54123DBB20A3B0D934346169334
:10472000534614A91F228C4617932B0062444D4612
:10473000B246159418978046170099460B9C0F9E19
:1047400008E03033DBB201343B55B5420ED3202CA8
:104750000CD0050031002800FEF7C2F8CBB20929C1
:10476000EFD90D9A94466344DBB2ECE7169B4046C2
:104770009846179B56464D469A460B94189F159C93
:1047800043460593534604930F9B069003930023DF
:1047900002930B9B0BE50B9980230A00DB001A4068
:1047A00010000A00194200D08BE610239A430F92A2
:1047B0008BE6002883D158E70D9B1B68D9175A1840
:1047C0004A409CE60D9B1B680993DCE4030001331F
:1047D0000F93A5E50B926DE40CB430B585B008AC31
:1047E00008CC064D0A000094010028000394FFF74E
:1047F0000FFA05B030BC08BC02B01847C530001035
:1048000000B585B003910121029000930348130085
:104810004A4202A9FFF7FCF905B000BDDD330010E4
:1048200010B5094A0300146884B0002C08D0012296
:1048300000910648524203A9A047012004B010BDD0
:1048400000F0A8F90020F9E7D02C0020CD330010AB
:1048500000BEFDE7094A03001068002805D008499A
:10486000C3188B4207D81360704706480449C31821
:1048700010608B42F7D901204042F5E7FC2600206A
:1048800000000420D831022010B5FFF7E1FFC04638
:1048900070B5FDF725FF074D074EB54209D200243C
:1048A000013E761BB60808CD984723000134B34279
:1048B000F9D170BDCCA80010D8A80010030010B525
:1048C000080011001B68984710BDC046F0B5C646E9
:1048D00000B5437D07000D001600002B38D0002ADC
:1048E0002EDD00216A1E90466A5C037D4C1C002070
:1048F0000A2A0CD0A64216D043461B5D21000D3B70
:104900005A4253416A5CDBB24C1C0A2AF2D1002B9A
:10491000F0D1884217DB022110483B689847A64235
:1049200007D02000E8E7864203DD311A3B682818EB
:104930009847AD19013D2B780D3B5A4253413B75C9
:1049400080BCB846F0BD091A3B6828189847E2E7D2
:104950000368110028009847F2E7C046C8B300106A
:10496000F0B5C6460B6806000C0000B5802B06D0DB
:104970005A1C2260E418267180BCB846F0BD0F4B6B
:104980001D68002D16D00B1D98460D4F02E02D69B5
:10499000002D0FD02B68002BF9D03B68002B01D0E5
:1049A000AB42F4D1280041462268FFF78FFF2D6902
:1049B000002DEFD101220023DBE7C046EC260020CA
:1049C000F8260020F0B5DE4657464E464546E0B58F
:1049D00085B017001C0006000D00FDF73BFB00230F
:1049E000314A12184B41802109068B4202D3012221
:1049F0002E4B52422E4908008A4605F021FF0190B5
:104A00006B1C03D1300005F0F1FC0500002C26D012
:104A1000284B9846284B1C68002C15D0002F21D11C
:104A2000264F02E02469002C0ED02368002BF9D019
:104A30003B68002B01D09C42F4D120002A003100B9
:104A4000C0472469002CF0D1019B002B28D12800FD
:104A500005B0F0BCBB46B246A946A046F0BD184B17
:104A60009846D7E7154B994602ABDF1D0A239B46B4
:104A700002E02469002CE7D02368002BF9D04B46D4
:104A80001B68002B01D0A342F3D12A003100200083
:104A9000C0475B460122390020003B70C047E8E771
:104AA000504605F095FED2E740420F00FFFFFF7F22
:104AB00038160020CD480010EC260020F8260020F3
:104AC000BD4800100A4A1368002B05D10CE01A00FB
:104AD0001B691032002B07D09842F8D1002902D16F
:104AE00003691360016170470029FCD01060FAE788
:104AF000EC26002010B500F003FB10BDF0B5CE464B
:104B0000474680B583B06B460600DD1D2870FDF773
:104B1000A1FA00231A4A12184B41802109068B4240
:104B200002D30122174B524217490800884605F06C
:104B300087FE164B81461C68002C14D0144F02E0EF
:104B40002469002C0FD02368002BF9D03B68002B80
:104B500001D09C42F4D1200001222900FFF7B6FECB
:104B60002469002CEFD14B46002B05D1300003B057
:104B7000C0BCB946B046F0BD404605F029FEF5E799
:104B800040420F00FFFFFF7F38160020EC26002078
:104B9000F826002070B5040005F028FC0123010070
:104BA000050001222000FFF70DFF084B1C68002CB8
:104BB00006D06368002B05D098472469002CF8D1F3
:104BC000280070BD2469002CF3D1F9E7EC26002001
:104BD000F0B5CE46474680B5A3B004000D00FDF702
:104BE00039FA0023294A12184B41802109068B42C9
:104BF00002D30122264B5242264F380005F020FEF8
:104C000000230600019322002B00234801A9FFF78F
:104C1000F7FD019B8046002B14D1204B1C68002C13
:104C200006D06368002B0BD098472469002CF8D17C
:104C3000002E25D1404623B0C0BCB946B046F0BDD9
:104C40002469ECE7154B1D689946002D1CD0144CC7
:104C500002E02D69002D0FD02B68002BF9D02368BE
:104C6000002B01D0AB42F4D12800019A02A9FFF732
:104C70002DFE2D69002DEFD14B4601951C68CEE726
:104C8000380005F0A5FDD5E70195D1E740420F00BA
:104C9000FFFFFF7F3816002061490010EC2600203E
:104CA000F82600200FB400B583B004A901C9019112
:104CB000FFF78EFF03B008BC04B018477047C0462A
:104CC0000022014B1A707047D23102204B7900202C
:104CD000FF2B0BD18B79002B08D1CB79012B05D180
:104CE000082A03D9024B8A7809301A707047C046E7
:104CF000D23102200120704710B5012901D00120D6
:104D000010BD13495379107909781B020343002021
:104D10009942F5D15378012B08D0022BF0D1002015
:104D200064220021FDF724FC0120E9E7D378917883
:104D30001B021943DB0507D54A0A100001231A405C
:104D40007E331940FDF79CFC01204A0A4042F5E7FA
:104D5000D23102200048704794B4001070B50500AD
:104D600014000120012909D153780020012B05D11D
:104D7000637912791B021343072B00D070BD210009
:104D80002800024A9F3301F049FAF7E7ECB300101C
:104D90000123037000487047CCB300104B780A78A9
:104DA0001B0213438A7810B512041A43CB781B06F2
:104DB00013439622D200934200D010BD002201205E
:104DC00011004042FDF75CFC024B1860024B196079
:104DD0007047C0468C2600209026002010B5024B5C
:104DE0001878FCF715FB10BDD3310220154B70B5B8
:104DF0001A68002A22D0EFF3108172B610680028DA
:104E0000FCD0BFF35F8F00200F4A596010701B6801
:104E1000BFF35F8F186081F31088002400250B4ECC
:104E20003078FCF7E9FA002804D100240025290095
:104E3000200070BD3078FCF7EBFAF8E7FA24002583
:104E4000A400ECE7F42C0020D4310220D33102205E
:104E500070B5040000200E0001F0F8FA002836D0EA
:104E6000002001F00BFB002831D0FDF7F3F8002300
:104E7000184A12184B41802109068B4216D2164D52
:104E8000280005F0DDFC002821D0002001F0DEFA2A
:104E900000280FD101200021404200F0F3FC032440
:104EA0006442280005F094FC200070BD01220B4BE9
:104EB0005242E4E7002001F0E1FA0028EAD02100A4
:104EC0003200002001F0E6FA041EEAD1E7E70324ED
:104ED0006442E9E740420F00BC300020FFFFFF7F43
:104EE00010B5FDF7B7F800230E4A12184B41802188
:104EF00009068B4202D301220B4B52420B4C20007D
:104F000005F09EFC00280CD001200021404200F05A
:104F1000B9FC002001F00AFB0028F5D1200005F0C3
:104F200057FC10BD40420F00FFFFFF7FBC30002048
:104F3000F8B5DE46574680B505000C00FDF78AF847
:104F40000023374A12184B41802109068B4202D3B5
:104F50000122344B5242344908008A4605F070FC65
:104F6000002803D1C0BCBB46B246F8BD002001F00A
:104F70006DFA00284AD00026002C43DD2B4B9B46BF
:104F800014E0A919002001F00DFB07000120002109
:104F9000404200F077FC002001F0C8FAFDF75AF813
:104FA000224BF61918605960B4422BDD002001F045
:104FB00019FBA71B0200B84200DD3A00002AE0D12D
:104FC00001200021404200F05DFC002001F0AEFA1B
:104FD000002001F03BFA002814D0002001F002FB71
:104FE0000028E1D1FDF736F85B460F001A685B68D0
:104FF000002184460E4812184B419F4202D8D3D15B
:105000009445D1D9504605F0E3FBABE700200021E1
:10501000064B18605960504605F0DAFBA2E7C0461F
:1050200040420F00FFFFFF7FBC300020C017002070
:1050300020A1070030B52B4C85B00021200005F0E1
:10504000DFFB00281CD1284B1A68002A16D0EFF38A
:10505000108172B610680028FCD0BFF35F8F012466
:105060002248596002781B68D2B20470BFF35F8F88
:105070000020186081F31088002A17D005B030BDD9
:1050800001200021404200F0FDFB002001F0F6F974
:105090000500200005F09CFB002DEFD0144B1B6891
:1050A000002BEBD0134A10689847E7E7FCF7CCFDDC
:1050B0000400FCF7CFFFFA220023920012184B41A4
:1050C000802109068B4202D301220B4B524201215F
:1050D000029100210191094920000091FCF7B8FDDF
:1050E000CCE7C046BC300020F42C0020D431022094
:1050F0008C26002090260020FFFFFF7FED4D001042
:10510000D02310B51B0684B01C68FCF79DFDFCF78E
:105110009BFEA04202D0002004B010BD294B1B789A
:1051200001F06AFD28480368002B47D00120FCF7F6
:105130001FFBFF23254C264920701840FCF786F9F9
:1051400020780121FCF746F90520FCF769F90028D1
:1051500026D1082200211F48FDF7A8FFFCF774FDA7
:105160000400FCF777FFFA220023920012184B414B
:10517000802109068B4202D30122174B52420121A2
:10518000029100210191154920000091FCF760FD7A
:105190000028C0DB12480121FFF794FC0120BBE787
:1051A0000120FCF7E5F80B4B01001800FCF744FB6D
:1051B000002205200B49FCF773F9EBE7FCF720FB15
:1051C000B4E7C04678B70010BC300020D3310220CD
:1051D00035500010F42C0020FFFFFF7FED4D001034
:1051E00090100020DD4D00100048704730B50010D1
:1051F00000487047DCB4001010B50400174803786D
:10520000002B20D0002C06D1154B16484380063BBE
:10521000FF3B038010BD052C19D8134BA400E058A8
:1052200012490123013804E001330A800231142BB2
:105230000FD0C25C002AF7D1C022DBB25B00920023
:1052400008481343E5E7112100F01AF8DAE70020D7
:10525000E0E7CA2303489B00DBE7C046CC300220CE
:1052600009040000C4260020C4B40010C626002093
:1052700010B5024800F0D8F810BDC046AC2F002091
:1052800030B54B1E012900D1A7E0664A11780D09FF
:105290002C0030349F2900D9A2E00470012B00D1EA
:1052A000BEE00F21147821400C003034092900D9C8
:1052B00098E04470022B00D1B2E05478250929000F
:1052C00030319F2C00D990E08170032B00D1A7E0F2
:1052D0000F2121400C003034092900D987E0C47027
:1052E000042B00D19CE094782509290030319F2CB3
:1052F00000D97FE00171052B00D191E00F21214001
:105300000C003034092900D976E04471062B00D115
:1053100086E0D4782509290030319F2C00D96EE031
:105320008171072B00D17BE00F2121400C0030342C
:10533000092966D8C471082B00D171E014792509B8
:10534000290030319F2C5FD80172092B68D00F21C2
:1053500021400C003034092958D844720A2B5FD000
:1053600054792509290030319F2C52D881720B2B9A
:1053700056D00F2121400C00303409294BD8C4727B
:105380000C2B4DD094792509290030319F2C00D960
:10539000073101730D2B43D00F2121400C00303415
:1053A000092901D937310C0044730E2B38D0D1793B
:1053B0000C09220030329F2900D9073282730F2B4B
:1053C0002ED00F220A4011003731092A01D830327D
:1053D0001100C173102B23D010300023037030BD97
:1053E00007345AE737310C0063E707316CE7373190
:1053F0000C0074E707317DE737310C0085E7073192
:105400008EE737310C0095E707319DE737310C0007
:10541000A3E70731AAE737310C00C4720C2BB1D1D6
:10542000C018DAE7AC2F002010B588B004000D22B8
:1054300000216846FDF73AFE0D22002104A8FDF781
:1054400035FE4B236A466846137004A90D2205F009
:10545000B7F91521082220006944FDF72DFE08B098
:1054600010BDC046F8B500F03BF90C23184DFF22E3
:10547000AB6705201749FCF713F8174C40220021B1
:105480002000FDF713FE4027002301262121134AA7
:1054900066702783A260136063545F31618445396D
:1054A00063540F4A0F496360E2602787A1620B6073
:1054B0006362E26205F0BCF980239B052E64EB6415
:1054C0009023094AEA508022084B5202DA64F8BD60
:1054D00000001150C104002000270020840010505B
:1054E000000110508000105010D001000020115019
:1054F00010B501210520FBF76DFF10BD10B500228E
:105500000021024800F00CF910BDC0462027002001
:10551000044B1970002904D080219023024A89028B
:10552000D1507047CD310220002011500B785B061E
:1055300002D14B78052B00D070478A78014B1A6056
:10554000FAE7C04600001150F0B5C64600B5CC7869
:1055500088780A794B797F21A40701401B02C5098D
:1055600013434F00A20F1400324E7A195201B218A1
:10557000907001206840507000205B055B0DD0707A
:105580001383D4768046CA00012D33D02A4884463E
:10559000880162448446B44460468260404610609C
:1055A000002933D0254AC9009046624641445160E3
:1055B0003F223F339343022C00D15B0020487A19ED
:1055C00001685201B218D1601E4ACB1803605140E5
:1055D0005A40802388465B019A4228D84346A40655
:1055E0001C4380237F197F01F61972681B06234331
:1055F000136011E014488446880162448446B44430
:105600006046826240461060002909D100236D0186
:1056100075196B600D4BEB60012080BCB846F0BD86
:10562000084AC9009046624641445162C0E7FDF70E
:1056300051F8D3E7002700208400105004001050D8
:10564000D82C002000001050800010500001105095
:1056500010B505F0EDF810BD10B57F200C0020400E
:105660004000E409110000191A00034B4001C01862
:1056700000F056F8012010BD002700207F231800FD
:1056800010B50840CA090B4203D107497D3B9B1A5C
:105690008B66400080188022044B40010021C01816
:1056A000120105F0E5F810BD002011500027002080
:1056B0007F22130010B50B400A4200D110BDC9096A
:1056C0005B005B1804485B01C018002300220349FB
:1056D000C37005F0CDF8F1E700270020FFF7FFFFCA
:1056E00080220A4B520410B51A60094B09491A600E
:1056F00010000B689843FBD180220021520106481C
:10570000FDF7D4FC0922054B5A6710BD00E00040AC
:1057100000F0004008C00040000010500000115090
:10572000002310B5C38201338282837601610400B5
:1057300005F096F8002804D080219023074A8902BA
:10574000D150200005F06CF8002802D00123237707
:1057500010BD200005F07CF8FAE7C046002011508B
:105760007047C0467047C046002070470020704711
:105770007047C0467047C0467047C0467047C04635
:10578000024B5878431E9841C0B27047A41D0020B8
:10579000024B18784007C00F7047C046A41D002078
:1057A000F8B54746CE4680B52B4F06003B78FF2B19
:1057B00004D00120C0BCB946B046F8BD0021542237
:1057C0002648FDF773FC0022254C264B20001A705A
:1057D000FCF716F8244B1C60244C2000143CFCF70A
:1057E0001DF8200001F0F2FD214B224D1C60224BE0
:1057F000002B27D02800FFF7CBFA204B2A7818601F
:105800001F49002489461D490023884610E043466D
:105810001B6862019B18002B12D05B68002B0FD015
:1058200098472A780134E4B2511C2300A1420BDBD3
:10583000A242ECD89B1A5B014B445B68002BEFD172
:105840000020B7E72A78DBE730003E70FFF70AFE5A
:105850003000FFF74DFEACE7C4100020A41D00206F
:105860005C1D0020CE310220F81D0020BC1000205D
:10587000FC1D0020CC310220914D0010781A002030
:10588000ECB50010F0B5DE4657464E464546E0B54D
:10589000C84B91B002931B78FF2B00D13EE1C64B61
:1058A000C64E9B465F46C64B0DAC0193C54B00935D
:1058B00035686A69EFF3108172B61368002BFCD06B
:1058C000BFF35F8FA9612800210001F0ADFB6A6979
:1058D000AB69BFF35F8F0021116083F3108800284C
:1058E00000D11BE16378082BE2D89B00FB589F4650
:1058F0006368002BDCD0A0689847D9E77F22217924
:10590000AF4D0A405300EB189846C8098044404602
:105910000123303005799D430571057903339D439B
:105920000571002A00D100E14346A74A1B7D127889
:10593000934200D3EFE0A54A5B011568ED18002DF6
:1059400000D1EBE0A36862792078AD69A847AFE7A2
:105950009F4A1378002B00D1E0E01378013BDBB2C3
:1059600013701378002BA3D10122954D01212B78C0
:10597000042013432B703423EA5C8A43EA54EA5C24
:105980008243EA540133EA5C8A43EA54EA5C824384
:10599000EA54237800209B4600F0A0FC6022237983
:1059A0001A40602A00D1EFE0402A00D1F5E0DB0682
:1059B000DB0E012B00D113E1022B00D1C7E0002B3D
:1059C00000D0E1E0202A00D11CE2002A00D0DBE078
:1059D0006379092B00D9D7E07E4A9B00D3589F46B4
:1059E000774D2B78DB0700D462E7FFF7C7FE5FE750
:1059F000019BDB78DB0700D45AE76068FFF7B2FE53
:105A000056E76F4D2B78DB0700D451E72878000765
:105A1000C00FFFF7B1FE4BE723786A4999468B46E2
:105A2000694B6A4998468A4639001A7847460023E6
:105A3000B04600254E46894610E053461B686A0171
:105A40009B18002B00D176E0DB68300098473A784D
:105A50000135EDB2511C2B008D4244DC9542ECD354
:105A60009B1A5B015B44EFE7237858499946564BF4
:105A70008A4698463100BB464E461A7800250023D8
:105A8000474689460FE053461B686A019B18002B66
:105A900055D0DB68300098473A780135EDB2511C9B
:105AA0002B008D4207DC9542EDD39B1A009A5B01D7
:105AB00094466344EDE7019D542200212800FDF740
:105AC000F5FA1022FF214448FDF7F0FA28002022C1
:105AD000FF2114304E465F46FDF7E8FA00F0F4FB74
